:020000040000FA
:060000000A128A11F92F1B
:100EC400F0007008831203139300080083160313C1
:100ED400141C6D2F6E2F682F08000A128A116827C0
:100EE4000A128A11831203131308080083160313CA
:100EF400141C7D2F7E2F832F0130F0000030F10071
:100F0400852FF001F1010800F30083160313871203
:100F1400731D8D2F8E2F922F720894008715962F94
:100F24007008720494008711730871048312031308
:100F34009400080083160313860188130816881684
:100F4400831203138817FF30860083160317880162
:100F54008901F0011030F4007408F100F20120302E
:100F64000A128A1186270A128A1183120313081E91
:100F7400BC2FBD2FB72F0A128A1178270A128A11A3
:100F8400700871040319C72FC82FB72F01308312BB
:100F9400031386028813C730F400D02FF40BCF2F2D
:100FA400D32FD42F00300A128A1162270A128A1111
:100FB4000A128A116F270A128A11831203138600F8
:100FC400C730F400E52FF40BE42FE82FE92F831248
:100FD400031388178230F500DD30F400F40BF02F92
:100FE400F50BF02FF52FB72F0A128A110028F601FE
:0C0FF400F701F80183010A128A119C2FFA
:04400E00F4E0FFFFDC
:00000001FF
